:200000000000000000000000F3017F008100EC0007027F007D00EC0029023500E200EC00E1
:2000200082020000FA00EC0000000000000000000000000000000000000000000000000056
:200040000000000000000000000000000000000000000000000000000000000000000000A0
:200060000000000005050505050505050505050505050505050505050505050505050505F4
:200080000505050505050505050505050505050505050505050505050505050505050505C0
:2000A0000505050505050505050505050505050505050505050505050505050505050505A0
:2000C000050505050505050505050505050505050505050505050505050505050505050580
:2000E000050505050505050505050505050505050505050505050505050505050505050560
:2001000005050505050505050505050505050505050505050505050505050505050505053F
:2001200005050505050505050505050505050505050505050505050505050505050505051F
:200140000505050505050505050505050505050505050505050505050505050505050505FF
:200160000505050505050505050505050505050505050505050505050505050505050505DF
:200180000505050505050505050505050505050505050505050505050505050505050505BF
:2001A00005050505050505050505050505050505050505050505050505050505050505059F
:2001C00005050505050505050505050505050505050505050505050505050505050505057F
:2001E00005050505050505050505050505050505050505050505050505050505050505055F
:2002000005050505050505050505050505050505050505050505050505050505050505053E
:2002200005050505050505050505050505050505050505050505050505050505050505051E
:200240000505050505050505050505050505050505050505050505050505050505050505FE
:200260000505050505050505050505050505050505050505050505050505050505050505DE
:200280000505050505050505050505050505050505050505050505050505050505050505BE
:2002A00005050505050505050505050505050505050505050505050505050505050505059E
:2002C00005050505050505050505050505050505050505050505050505050505050505057E
:2002E00005050505050505050505050505050505050505050505050505050505050505055E
:2003000005050505050505050505050505050505050505050505050505050505050505053D
:2003200005050505050505050505050505050505050505050505050505050505050505051D
:200340000505050505050505050505050505050505050505050505050505050505050505FD
:200360000505050505050505050505050505050505050505050505050505050505050505DD
:200380000505050505050505050505050505050505050505050505050505050505050505BD
:2003A00005050505050505050505050505050505050505050505050505050505050505059D
:2003C00005050505050505050505050505050505050505050505050505050505050505057D
:2003E00005050505050505050505050505050505050505050505050505050505050505055D
:00000001FF
