:100000000C9434000C9451000C9451000C94510049
:100010000C9451000C9451000C9451000C9451001C
:100020000C9451000C9451000C9451000C9451000C
:100030000C9451000C9451000C9451000C945100FC
:100040000C9454000C9451000C9451000C945100E9
:100050000C9451000C9451000C9451000C945100DC
:100060000C9451000C94510011241FBECFEFD8E026
:10007000DEBFCDBF15E0A0E0B1E0EAE0F7E102C0ED
:1000800005900D92A03BB107D9F725E0A0EBB5E0B4
:1000900001C01D92A93BB207E1F70E9445010C94F3
:1000A000830B0C940000FFCF0F921F920FB60F929C
:1000B00011242F933F934F935F936F937F938F936D
:1000C0009F93AF93BF93EF93FF938FB7F8942091D3
:1000D000B0053091B105E091B205F091B305A901E9
:1000E000405F5F4FBF016F4F7F4F91E04217530753
:1000F0006E077F0708F0912D9170903009F02BC0AA
:100100005093B1054093B0057093B3056093B20569
:10011000A9015F7060E070E091E020305105660752
:10012000770709F0912D9170903019F091E090933C
:10013000B4058FBFFF91EF91BF91AF919F918F91C8
:100140007F916F915F914F913F912F910F900FBED3
:100150001F900F90189580E691E06CE170E00E948E
:100160004E080E946E0BA1EBB1E089EB91E02C915F
:100170003091C00030723030D9F32093C600119610
:10018000A817B907A1F7CB010E946B068091C000A8
:1001900080728030D9F38AE08093C6000895A9EB7D
:1001A000B1E086EC91E02C913091C000307230309B
:1001B000D9F32093C6001196A817B907A1F7CB0170
:1001C0000E946B068091C00080728030D9F38AE073
:1001D0008093C6000895A7EAB1E081EB91E02C91ED
:1001E0003091C00030723030D9F32093C6001196A0
:1001F000A817B907A1F7CB010E946B068091C00038
:1002000080728030D9F38AE08093C600089580918F
:100210007C00807F8E6080937C0080917A00806477
:1002200080937A0080917A0080748030D9F7809131
:10023000780090917900089580917C008F60809380
:100240007C0080917A00806480937A0080917A00AB
:1002500080748030D9F7809178009091790008956A
:1002600080917C00807F886080937C0080917A0000
:10027000806480937A0080917A0080748030D9F70E
:10028000809178009091790008950E9449010E9420
:100290006E0B6F927F928F929F92AF92BF92CF928E
:1002A000DF92EF92FF920F931F93CF93DF93CDB71F
:1002B000DEB7EF970FB6F894DEBF0FBECDBF9FB786
:1002C000F8948091B505803009F08CC081E080936E
:1002D000B5059FBF5998519A20E130E03093C50091
:1002E0002093C40092E09093C00098E19093C100E5
:1002F00096E09093C2001FB7F8942091B605309114
:10030000B7052030310509F076C08093B8058FEF2E
:100310009FEF3C019093B7058093B60586EB95E07F
:100320000E9475031FBF1FB7F8948091B605909186
:10033000B7058030910509F0C7C17092B70560928A
:10034000B6058091B805803081F0A4E8B1E082E97B
:1003500091E02C913091C00030723030D9F320936D
:10036000C6001196A817B907A1F786EB95E00E9481
:1003700075031FBF2998219A289A209A5F98579A47
:100380008E010C5E1F4F40E150E0C801612D0E94BC
:100390007C0B1EA281E090E08CA39DA360E070E046
:1003A000C8017B014FE0212D0E948803C801B701DD
:1003B0006B014BE027E00E9488031EA27801C80170
:1003C00040965C0111E049E008E0C701B601212D2B
:1003D0000E9488030030C9F00A95812F8395412F30
:1003E000182FF3CF9FBF82E793E06BE270E00E948B
:1003F0004E080E946E0B82E593E060E170E0AE0172
:100400004C5E5F4F20E231E068C1F501E080F18091
:1004100080E090E08E010C5E1F4F4C01FC01EE1558
:10042000FF0550F4C801BF014CE0212D6F010E946F
:100430008803F6013196F3CF8E010F5F1F4FBE0187
:100440006C5E7F4F43E150E0C8010E94730BC8010E
:100450000E94A10925982D9A23982B982C98249ACC
:1004600022982A9A81E080936E0084B5836084BDCF
:1004700085B5887F836085BD1FB7F8948091B605E8
:100480009091B7058030910509F01EC1C30190938A
:10049000B7058093B6058091B805803081F0A2E958
:1004A000B1E087EA91E02C913091C0003072303099
:1004B000D9F32093C6001196A817B907A1F786EBC8
:1004C00095E00E9475031FBF87E880937A0080E45F
:1004D00080937C000E9407015C010E941C016C015A
:1004E0000E9430017C011FB7F8948091B60590916D
:1004F000B7058030910509F0E7C0C3019093B705B7
:100500008093B6058091B805803029F089EB95E09D
:10051000B5010E94EB0086EB95E00E9475031FBFBA
:100520001FB7F8948091B6059091B705803091057A
:1005300009F0CAC0C3019093B7058093B6058091B6
:10054000B805803029F089EB95E0B6010E94B30030
:1005500086EB95E00E9475031FBF1FB7F89480914A
:10056000B6059091B7058030910509F0ADC0709245
:10057000B7056092B6058091B805803029F089EB07
:1005800095E0B7010E94CF0086EB95E00E947503CD
:100590001FBF0E9428080E9422080E941C080E9477
:1005A0001608789485E090E088AB99AB2FEF30E0A7
:1005B0002EA73FA741E05FEF4CA75DA760E870E082
:1005C0006AA77BA78DA39EA32BA33CA349A35AA3F1
:1005D0006F8F78A38A8F9B8F288F398F4E8B5F8B7D
:1005E0006C8B7D8BE2E0ECAB7401EAAAFBAAE1E044
:1005F000E9A7EFA2F8A61E8EEC8EFD8E8BAF9CAF06
:1006000029AF3AAF4FAB58AF6DAB7EAB83E00FB6BF
:1006100021968EAF21970FBEEDAEFEAE8E010F5F1D
:100620001F4FC8010E94A109C801B7014AE024E197
:100630000E9488038E010C5E1F4FC8010E94560560
:10064000C8010E942304C8010E94560561E070E0C1
:100650008FB7F8949091B405903011F48FBFF8CF14
:100660001092B4058FBF8FB7F8940091B205109126
:10067000B305E090B005F090B1058FBFCE01449670
:100680006B010E940E05CE01C5960E941E05CE018B
:100690000196A701B8010E94C109B6016F5F7F4FA3
:1006A000A401CA018F4F9F4F9A01282739274095EF
:1006B00050954223532321E055230AF0212D217028
:1006C000203079F44C01C4CF82E593E060E170E022
:1006D000AE014C5E5F4F20E031E00E9462080E9454
:1006E0006E0B80ED91E06CE181CEFC01A081B181C7
:1006F0002B2F22232AF41196FC01A083B1830895A5
:100700008CEE91E064E270E00E944E080E946E0B55
:100710008F929F92AF92BF92CF92DF92EF92FF9211
:100720000F931F93F22EE42E8C019B01220F331F97
:1007300081E02617370708F0812D8170803009F09D
:1007400076C04901F80120893189A901440F551F5C
:1007500081E04217530708F0812D8170803009F045
:1007600066C06A0140E150E0C801612D5A010E9453
:100770007C0BF401E031F10508F061C0D801AE0F47
:10078000BF1FEC92E160E00FF11FF0822898C601D4
:100790008030910509F435C0E0E0F0E09F012031A0
:1007A000310508F03AC0C901D801A80FB91F019658
:1007B0007C012C91AF01BF01322FA42FAA9512F01A
:1007C000330FFCCF32953F70369536953270A5B118
:1007D000AD7FA32BA5B931E0473051056E077F07E8
:1007E00008F0312D31704F5F5F4F6F4F7F4F5F9A31
:1007F0005F98303009F7C60197012817390708F4C8
:10080000CECF289A1F910F91FF90EF90DF90CF905D
:10081000BF90AF909F908F90089501978031910580
:10082000B50108F0CB010E945E080E946E0B80E1CA
:1008300092E061E270E00E944E080E946E0B60E15F
:1008400070E0CF01F0CF0F931F938C0161E070E057
:100850000E943904C8010B9662E070E00E943904DE
:10086000C801469663E070E00E9439041F910F9121
:100870000895AF92BF92CF92DF92EF92FF920F93C3
:100880001F93CF93DF93CDB7DEB72F970FB6F894B2
:10089000DEBF0FBECDBF8C017B01EE0CFF1CEE0C4A
:1008A000FF1CEE0CFF1C9701369527953695279572
:1008B0003695279581E02617370709F4812D817039
:1008C000803009F087C080E090E08F8398878D8327
:1008D0009E838B839C8389839A83F701389681E07A
:1008E000EE15FF0508F0812D8170803009F076C08B
:1008F00084E0E130F80708F083C0E0E0F0E09E011A
:100900002F5F3F4F41E0C7018E0F9F1FD901AE0FF0
:10091000BF1F31965FB352705030E1F792BD81BD79
:100920004FBB80B58C93E830F10569F788E090E023
:100930008B879C8729873A87CE010D96BE01675F1A
:100940007F4F0E9466088D85803009F04FC0EE848D
:10095000FF84CE010D96BE01675F7F4F0E9466083F
:100960008D85803009F042C0CE84DF84CE010D96A3
:10097000BE01675F7F4F0E9466088D85803009F059
:1009800035C0AE84BF84CE010D96BE01675F7F4F38
:100990000E9466088D85803009F028C08E859F856D
:1009A000F80186839783A482B582C282D382E082D3
:1009B000F1822F960FB6F894DEBF0FBECDBFDF9148
:1009C000CF911F910F91FF90EF90DF90CF90BF904C
:1009D000AF90089580E492E061E203C080E491E08A
:1009E0006CE170E00E944E080E946E0B8CEA94E06D
:1009F0006BE270E0AE01475F5F4F28E131E009C074
:100A00008CEA94E06BE270E0AE01475F5F4F20E15B
:100A100031E00E9462080E946E0B08950F931F93AD
:100A20008C010E941E05C8010B960E941E05C8017C
:100A300046960E941E051F910F910895FC01228584
:100A400030917C00307F322B30937C0020917A00F3
:100A5000206420937A0020917A0020742030D9F706
:100A6000609178007091790040E050E031E04617E5
:100A7000570721E00CF0212DFC01A081B181AD01CF
:100A8000461B570B4A175B070CF0312D23272170AB
:100A9000203021F4FC0140875187089580E792E0DF
:100AA00061E270E00E944E080E946E0B8F929F924E
:100AB000AF92BF92CF92DF92FF920F931F93CF938B
:100AC000DF93CDB7DEB72D970FB6F894DEBF0FBE1C
:100AD000CDBF6C01FFB6F8948091B6059091B70533
:100AE0008030910509F0EAC00FEF1FEF1093B705B2
:100AF0000093B6058091B805803089EB95E05C01E4
:100B000080E090E04C0109F423C0C50189839A83F9
:100B1000C4018B839C83ACE7B1E08EE791E02C911C
:100B20003091C00030723030D9F32093C600119656
:100B3000A817B907A1F7CE010196B6010E94EE08E9
:100B40008091C00080728030D9F38AE08093C60023
:100B500086EB95E00E947503FFBEFFB6F894809186
:100B6000B6059091B7058030910509F0A7C01093A4
:100B7000B7050093B6058091B805803009F425C00B
:100B8000F6013B96C5018D839E83C4018F839887B0
:100B9000AEE7B1E080E891E02C913091C000307276
:100BA0003030D9F32093C6001196A817B907A1F7E2
:100BB000CE010596BF010E94EE088091C0008072B0
:100BC0008030D9F38AE08093C60086EB95E00E94DE
:100BD0007503FFBEFFB6F8948091B6059091B705F6
:100BE0008030910509F06AC01093B7050093B605EF
:100BF0008091B805803009F423C0C6014696BC0137
:100C0000A986BA868B869C86A0E8B1E082E891E04E
:100C10002C913091C00030723030D9F32093C6004F
:100C20001196A817B907A1F7CE0109960E94EE0800
:100C30008091C00080728030D9F38AE08093C60032
:100C400086EB95E00E947503FFBEFFB6F894809195
:100C5000B6059091B7058030910509F02FC010932B
:100C6000B7050093B6058091B805803081F0A2E801
:100C7000B1E084E891E02C913091C00030723030C6
:100C8000D9F32093C6001196A817B907A1F786EBF0
:100C900095E00E947503FFBE2D960FB6F894DEBF57
:100CA0000FBECDBFDF91CF911F910F91FF90DF90CD
:100CB000CF90BF90AF909F908F90089582E593E082
:100CC00060E170E0AE01435F5F4F28E031E00E94D9
:100CD00062080E946E0B6F927F928F929F92AF92EA
:100CE000BF92CF92DF92EF92FF920F931F93CF9319
:100CF000DF93CDB7DEB725970FB6F894DEBF0FBEF2
:100D0000CDBFBC0181E08D8381E091E08B839C832A
:100D100089839A8325E030E0CE0101967C018AE048
:100D200090E04C01F90159013197C7018E0F9F1FC7
:100D30003C01CB016B01B4018F010E941E0B960197
:100D40008063D3018C932A30310588F0C901B40146
:100D50000E941E0B003011059801F80121F780E177
:100D600095E061E270E00E944E080E946E0B063032
:100D70001105F80108F028C0C5018630910579F009
:100D8000D701AE0FBF1F8C919091C0009072903030
:100D9000D9F38093C6003196E530F10589F72596A1
:100DA0000FB6F894DEBF0FBECDBFDF91CF911F917C
:100DB0000F91FF90EF90DF90CF90BF90AF909F90FA
:100DC0008F907F906F90089581E395E068E2CACF9D
:100DD0002F923F924F925F926F927F928F929F924B
:100DE000AF92BF92CF92DF92EF92FF920F931F9339
:100DF000CF93DF93CDB7DEB728970FB6F894DEBF59
:100E00000FBECDBF79018A014B01FC012281203048
:100E100089839A8309F42BC0DC0112961C92FC0191
:100E200040815181A0EFB2E082EF92E02C913091AD
:100E3000C00030723030D9F32093C6001196A81745
:100E4000B907A1F7DA01FD018381803039F0809183
:100E5000C00080728030D9F38AE006C08091C00063
:100E600080728030D9F380E28093C60019C0FC0103
:100E7000A081B181FD018381803091F4AD01ADEAA3
:100E8000B3E08FEA93E02C913091C00030723030A3
:100E9000D9F32093C6001196A817B907A1F7DA0174
:100EA000FD018381803031F0FD0182815D010E946E
:100EB000D608D501139600301105F40171F00E0F1C
:100EC0001F1F80819091C00090729030D9F3809361
:100ED000C6003196E017F107A1F75D01AFEAB3E074
:100EE00081EB93E02C913091C00030723030D9F317
:100EF0002093C6001196A817B907A1F781E091E0E9
:100F00008F8398878D839E838B839C83C701990FE2
:100F1000990B892FB70168277927681B790BE6E0C1
:100F2000F0E0CE0103964C018AE090E01C013F0105
:100F300031976401CE0EDF1ECB012B01B1018F0171
:100F40000E941E0B92018063D6018C932A303105DA
:100F500088F0C901B1010E941E0B00301105380153
:100F6000F80131F780EE94E061E270E00E944E08F3
:100F70000E946E0BFF2042F0F801E730F1058981F5
:100F80009A8108F41FC04EC00030110589819A81F2
:100F900049F3F3013297E630F10508F043C0DF0171
:100FA0009401A20FB31F2DE22C930CC0D401AE0FFD
:100FB000BF1F2C913091C00030723030D9F3209394
:100FC000C6003196E630F10589F7D5012C91203025
:100FD00081F0ABEAB3E04DEA53E02C913091C000D0
:100FE00030723030D9F32093C6001196A417B5079C
:100FF000A1F728960FB6F894DEBF0FBECDBFDF91E4
:10100000CF911F910F91FF90EF90DF90CF90BF9005
:10101000AF909F908F907F906F905F904F903F9098
:101020002F90089581E395E068E29FCF80917E0044
:10103000886080937E00089580917E008460809314
:101040007E00089580917E00826080937E000895E6
:1010500080917E00816080937E000895FB018481F1
:10106000958126813781F9012681378162E473E019
:1010700040E150E0F901099599270895FB01848129
:10108000958126813781F901268137816DE973E0E9
:101090004EE050E0F9010995992708950E94520801
:1010A0000E946E0B0E9453000E946E0B0E94530020
:1010B0000E946E0B0E9456080E946E0B0E945208FE
:1010C0000E946E0B0E9452080E946E0B0F931F939A
:1010D000CF93DF93CDB7DEB722970FB6F894DEBF7C
:1010E0000FBECDBFDB01FD014281538142309A0129
:1010F000510508F423C0AC01C9010297292F22230E
:101100000AF42DC0FD0132968F01BD01FB01208143
:10111000318129833A83A981BA811296FB01A08388
:10112000B183F80180839183E981FA818081918183
:10113000DA01FD0181839283212D05C024E0FC01A9
:10114000218321E0DC012C9322960FB6F894DEBFB8
:101150000FBECDBFDF91CF911F910F91089581EB0D
:1011600093E062EA70E00E945A080E946E0BDC0174
:101170008C9194E09827892F9927880F991FFC015B
:10118000E85DFE4F20813181FC01EE59FC4F40812A
:101190005181FB018481958166817781FB01A68164
:1011A000B781B901FD010995992708958030A9F00B
:1011B0002FE233E043E353E0912DD9016C9170911C
:1011C000C00070727030D9F36093C6001196A417F6
:1011D000B507A1F79395981781F708958F929F927D
:1011E000AF92BF92CF92DF92FF920F931F93CF9354
:1011F000DF93CDB7DEB723970FB6F894DEBF0FBEEF
:10120000CDBFFC01F38021E0238333966F01A1E27F
:10121000B3E02BE233E04C915091C000507250305B
:10122000D9F34093C6001196A217B307A1F7FC01AA
:101230002281239531E0203009F0312D317030309A
:1012400009F073C0DC0112962C9321E02B83898373
:101250009A83FB01208131815F018E010F5F1F4F57
:101260006BE273E044E050E0C8010E94E806F5013B
:101270002281338163E373E043E050E0C8014A0117
:101280000E94E806F5012481358166E373E0C80118
:10129000A4010E94E806F5012681378169E373E025
:1012A00049E050E0C8010E94E806C80102969C018E
:1012B000A981BA81FD018381803079F0FD018281AD
:1012C000803009F436C012968A958C93D9019C918E
:1012D0009030B9F40E94D6080CC0D9018C918030AE
:1012E00081F48091C00080728030D9F380E28093D5
:1012F000C6008091C00080728030D9F38DE7809362
:10130000C600D601FC9223960FB6F894DEBF0FBE3E
:10131000CDBFDF91CF911F910F91FF90DF90CF90C4
:10132000BF90AF909F908F90089580E994E06CE11A
:1013300003C080E093E061E270E00E944E080E94EA
:101340006E0BCF92DF92EF92FF920F931F938C015F
:10135000F801E088F188E0E0F0E0EE15FF0550F4D8
:10136000C801BF014CE021E06F010E948803F60133
:101370003196F3CF1F910F91FF90EF90DF90CF90B8
:1013800008952F923F924F925F926F927F928F9229
:101390009F92AF92BF92CF92DF92EF92FF920F9304
:1013A0001F93CF93DF93CDB7DEB764970FB6F89452
:1013B000DEBF0FBECDBF8A018B839C8380E090E0AF
:1013C0008B879C8789879A878F8398878D839E8355
:1013D00081E0972F99230AF0812D8170803081F46C
:1013E00081E00030110520E030E06207730709F06A
:1013F000812D817080306B01C1F00FEE12E063C06F
:1014000020E030E881E0003011056207730709F041
:10141000812D8170803009F0FDC080E090E06C018A
:10142000801B910BC60AD70A8C0169837A8386EFE9
:1014300090E03C01CE0105962C01A0E0B0E0A83080
:10144000B10508F0E0C0B801C6012AE030E040E094
:1014500050E01A017D010E94320B59014A01B50189
:10146000C4019301A1010E940E0BF701600F711FCF
:101470006063D201AE0FBF1F6C9381E00A3011058B
:10148000C204D30408F0812D8170DF0111968030F1
:101490008501640109F4D3CF81E029813A813323A6
:1014A0000AF0812D81708030820151F0E730F10522
:1014B00008F0A9C0A00FB11F8DE28C933296DF0116
:1014C000A230B10518F4A1E0B0E01EC0A8014A0F97
:1014D0005B1F6D019D0136952795421B530B80E0E4
:1014E00090E0D801A80FB91F6C91FC01E095F09530
:1014F000E20FF31FE40FF51F70817C936083019668
:101500008217930770F3D60180E290E28B8B9C8B5D
:10151000898B9A8B8F87988B8D879E8781E090E04F
:10152000BE01635F7F4F8930910508F064C09B0165
:10153000281B390BFD01E81BF90BE00FF11F40815F
:10154000F9014087FC0131968A179B07CF0158F3B8
:101550006B010B811C81F801F288128A60E070E057
:10156000C8015B0149E0212D0E948803C801429611
:101570004C0118E0C501D6013C01A80FB91F8C91A0
:101580008052863540F4A82FB82FBB0FBB0BA75A4B
:10159000BA4F2C9101C025EE8B819C81B501412F62
:1015A0000E9488031A95C30101968830910519F7A6
:1015B000D401FC9260E070E08B819C8149E02F2D8A
:1015C0000E94880364960FB6F894DEBF0FBECDBFAD
:1015D000DF91CF911F910F91FF90EF90DF90CF900F
:1015E000BF90AF909F908F907F906F905F904F9043
:1015F0003F902F90089580EA92E061E270E00E94AF
:101600004E080E946E0B68E070E0CB010E945E08FD
:101610000E946E0B80ED92E06FE1F0CFDB018F93C3
:101620009F930E94540BBF91AF91A29F800D911D7B
:10163000A39F900DB29F900D11240895AA1BBB1B70
:1016400051E107C0AA1FBB1FA617B70710F0A61BC2
:10165000B70B881F991F5A95A9F780959095BC01E3
:10166000CD010895A1E21A2EAA1BBB1BFD010DC0DE
:10167000AA1FBB1FEE1FFF1FA217B307E407F50742
:1016800020F0A21BB30BE40BF50B661F771F881F1E
:10169000991F1A9469F760957095809590959B01B4
:1016A000AC01BD01CF0108950E945F0BA59F900D75
:1016B000B49F900DA49F800D911D11240895A29FA9
:1016C000B001B39FC001A39F700D811D1124911D16
:1016D000B29F700D811D1124911D089581E090E04D
:1016E000F8940C94830BFB01DC0102C001900D9275
:1016F00041505040D8F70895DC0101C06D9341502E
:0A1700005040E0F70895F894FFCF81
:10170A000D05000001003E080D05000001003E081D
:10171A000D05000001002E080D0501000100B708A3
:10172A000D05000001003E086004590453045304E7
:10173A0053048404750469040000000000000000DA
:10174A00617474656D707420746F206164642077AD
:10175A00697468206F766572666C6F7700000000A6
:10176A00617474656D707420746F2061646420778D
:10177A00697468206F766572666C6F77583A593A61
:10178A005A3A0A0A576F6F7420697420776F726B1E
:10179A00730A4265686F6C64204A6F79636F6E746E
:1017AA00726F6C6C65720A5662616E646761703A38
:1017BA002047726F756E643A2054656D7065726168
:1017CA00747572653A2000000000000000000000F5
:1017DA00617474656D707420746F2061646420771D
:1017EA00697468206F766572666C6F77617373656A
:1017FA007274696F6E206661696C65643A206973F8
:10180A005F77726974696E6728626F72726F77297F
:10181A00617474656D707420746F206D756C746971
:10182A00706C792077697468206F766572666C6F60
:10183A007700000000000000000000000000000027
:10184A00617474656D707420746F206D756C746941
:10185A00706C792077697468206F766572666C6F30
:10186A0077000000000000000000000000000000F7
:10187A00617474656D707420746F2073756274720C
:10188A006163742077697468206F766572666C6F1D
:10189A0077000000000000000000000000000000C7
:1018AA00617474656D707420746F207375627472DC
:1018BA006163742077697468206F766572666C6FED
:1018CA007700000000000000000000000000000097
:1018DA00617474656D707420746F206E65676174CD
:1018EA00652077697468206F766572666C6F7730E9
:1018FA00207B000000000000000000000000000043
:10190A00617474656D707420746F2073756274727B
:10191A006163742077697468206F766572666C6F8C
:10192A007741786973436F6E6669677A65726F206B
:10193A002020206D696E6D6178646561645F7A6FDD
:10194A006E654F75744F66426F756E647345727239
:10195A006F72616C726561647920626F72726F77FF
:10196A0065640900070006000600060007000F006C
:10197A000C0063616C6C656420604F7074696F6EF3
:10198A003A3A756E77726170282960206F6E20610D
:10199A0020604E6F6E65602076616C7565426F726D
:1019AA00726F774D75744572726F722C0A2C203AD9
:1019BA0020756E7361666520707265636F6E646907
:1019CA0074696F6E2873292076696F6C6174656417
:1019DA003A20736C6963653A3A66726F6D5F726139
:1019EA00775F70617274732072657175697265735D
:1019FA002074686520706F696E74657220746F2038
:101A0A00626520616C69676E656420616E64206E30
:101A1A006F6E2D6E756C6C2C20616E642074686517
:101A2A0020746F74616C2073697A65206F66207404
:101A3A00686520736C696365206E6F7420746F200B
:101A4A0065786365656420606973697A653A3A4DB9
:101A5A00415860437573746F6D496E76616C696441
:101A6A005472756E63617465644E6F7453757070E9
:101A7A006F72746564546F6F4D616E7956617269E5
:101A8A00616E74734F76657272756E0000000000A5
:101A9A00617474656D707420746F2061646420775A
:101AAA00697468206F766572666C6F7763616C6CB7
:101ABA0065642060526573756C743A3A756E777214
:101ACA006170282960206F6E20616E2060457272F5
:101ADA00602076616C75650000000000000000005F
:101AEA00617474656D707420746F2073756274729A
:101AFA006163742077697468206F766572666C6FAB
:101B0A007700000000000000000000000000000054
:101B1A00617474656D707420746F20737562747269
:101B2A006163742077697468206F766572666C6F7A
:101B3A0077696E7465726E616C206572726F723A43
:101B4A0020656E746572656420756E72656163687E
:101B5A0061626C6520636F646500E5E5E5E5E5E5CE
:101B6A00E5E5E5E5E5E50180E57E306D79335B5F26
:101B7A00707F7BE5E5E5E5E5E5E577E54EE54F4789
:101B8A005E37303CE50EE5157E67E5E55BE53EE54B
:101B9A00E5E5E5E5E5E5E5E508E5771F4E3D4F476F
:101BAA005E37303CE50EE5157E6773E55BE53E0082
:00000001FF
