:100000000C945D000C9485000C9485000C94850084
:100010000C9485000C9485000C9485000C9485004C
:100020000C9485000C9485000C9485000C9485003C
:100030000C9485000C9485000C9485000C9485002C
:100040000C947B030C9485000C9441030C940603E0
:100050000C9485000C9485000C9485000C9485000C
:100060000C9485000C9485000000000024002700FB
:100070002A0000000000250028002B0004040404CE
:100080000404040402020202020203030303030342
:10009000010204081020408001020408102001021F
:1000A00004081020000000070002010000030406FD
:1000B0000000000000000000C50311241FBECFEFA8
:1000C000D8E0DEBFCDBF11E0A0E0B1E0EAE4FBE0A4
:1000D00002C005900D92A032B107D9F721E0A0E24D
:1000E000B1E001C01D92A73DB207E1F710E0CDE5F8
:1000F000D0E004C02197FE010E949D05CC35D107B8
:10010000C9F70E9400040C9472050C940000089535
:10011000CF92DF92EF92FF920F931F93CF93DF93D3
:100120006C01EB017B01E40EF51E00E010E0CE1542
:10013000DF0561F06991D601ED91FC910190F081AC
:10014000E02DC6010995080F191FF1CFC801DF91F5
:10015000CF911F910F91FF90EF90DF90CF90089576
:100160000F931F93CF93DF93FC01A685B7858D0175
:10017000005C1F4FE8018881998101968F73992750
:10018000AD014E5B5F4FEA0128813981281739079D
:10019000D1F3E80128813981A20FB31F6C93A685A2
:1001A000B785A05CBF4F11969C938E93A689B789A3
:1001B0002C9181E090E0078C02C0880F991F0A946F
:1001C000E2F7822B8C9381E081A30488F589E02DEE
:1001D00080818064808381E090E0DF91CF911F91E6
:1001E0000F910895FC0181A1882329F0A489B58984
:1001F0008C9186FFFBCF11A20895FC01A485B585E3
:10020000FD01E05CFF4F2081318132968081918138
:100210002817390779F080819181A80FB91F8C9137
:10022000208131812F5F3F4F2F733327318320830C
:1002300090E008958FEF9FEF0895DC011C96ED91FB
:10024000FC911D97DF01A05CBF4F2D913C91119750
:1002500012968D919C9111972817390739F08D913D
:100260009C91E80FF91F808190E008958FEF9FEF38
:100270000895FC0124853585F901E05CFF4F8081FC
:100280009181329620813181821B930B8F73992744
:10029000089585EB91E00C94390190E0FC01EC5558
:1002A000FF4F2491FC01E057FF4F3491FC01E458CB
:1002B000FF4FE491EE2309F43CC0222339F12330AF
:1002C00091F038F42130A9F0223001F584B58F7D0A
:1002D00012C0263091F02730A1F02430B9F480917B
:1002E00080008F7D03C0809180008F778093800095
:1002F0000DC084B58F7784BD09C08091B0008F7721
:1003000003C08091B0008F7D8093B000F0E0EE0FCD
:10031000FF1FEE58FF4FA591B4919FB7F89461115C
:1003200004C08C913095382302C0EC913E2B3C9355
:100330009FBF0895CF93DF9390E0FC01E057FF4FFC
:100340002491FC01E458FF4F8491882361F190E0EF
:10035000880F991FFC01E859FF4FC591D491FC010A
:10036000EE58FF4FA591B491611109C09FB7F89461
:100370008881209582238883EC912E230BC06230E4
:1003800061F49FB7F8948881322F30958323888356
:10039000EC912E2B2C939FBF06C08FB7F894E88169
:1003A0002E2B28838FBFDF91CF9108951F93CF937A
:1003B000DF93182FEB0161E00E949A01209711F45E
:1003C00060E004C0CF3FD10539F461E0812FDF91B7
:1003D000CF911F910C944D01E12FF0E0EC55FF4FB0
:1003E000E491E330F9F048F4E130B9F0E230A1F5FE
:1003F00084B5806284BDC8BD34C0E630E9F0E73022
:1004000019F1E43049F5809180008062809380008A
:10041000D0938B00C0938A0024C084B5806884BDCB
:10042000C7BD1FC080918000806880938000D093FA
:100430008900C093880015C08091B00080688093C7
:10044000B000C093B3000DC08091B0008062809373
:10045000B000C093B40005C0C038D1050CF0B5CFD2
:10046000AFCFDF91CF911F9108953FB7F89480915E
:10047000250190912601A0912701B091280126B570
:10048000A89B05C02F3F19F00196A11DB11D3FBFCC
:10049000BA2FA92F982F8827820F911DA11DB11D5A
:1004A000BC01CD0142E0660F771F881F991F4A9556
:1004B000D1F70895CF92DF92EF92FF92CF93DF931F
:1004C0006B017C010E943502EB01C114D104E104EF
:1004D000F10479F00E9435026C1B7D0B683E73407D
:1004E000A0F381E0C81AD108E108F108C851DC4F37
:1004F000ECCFDF91CF91FF90EF90DF90CF900895F8
:1005000060E089E00E944D0160E088E00E944D01BA
:1005100060E087E00E944D0160E086E00C944D01B0
:10052000EF92FF920F931F93CF93DF93D82F7B010E
:100530008A01682F89E00E944D01C1E0CD276C2F10
:1005400088E00E944D016C2F87E00E944D016D2FC5
:1005500086E00E944D01B70183E00E94D601B701F9
:1005600085E00E94D601B801110F880B990BDF912D
:10057000CF911F910F91FF90EF900C945A02EF9240
:10058000FF920F931F93CF93DF93D82F7B018A01A4
:10059000682F89E00E944D01C1E0CD276C2F88E0D3
:1005A0000E944D016D2F87E00E944D016C2F86E067
:1005B0000E944D01B70183E00E94D601B70185E09A
:1005C0000E94D601B801110F880B990BDF91CF91D2
:1005D0001F910F91FF90EF900C945A0260E083E01E
:1005E0000E949A0160E085E00E949A0160E089E043
:1005F0000E949A0160E088E00E949A0160E087E032
:100600000E949A0160E086E00C949A011F920F927A
:100610000FB60F9211242F933F938F939F93EF93D5
:10062000FF9320916D0130916E0180916F01909147
:1006300070012817390731F48091C1008F7D8093B4
:10064000C10014C0E0916F01F0917001E35DFE4FB5
:10065000208180916F019091700101968F7399278D
:100660009093700180936F012093C600FF91EF91EA
:100670009F918F913F912F910F900FBE0F901F90E0
:1006800018951F920F920FB60F9211242F934F932C
:100690005F938F939F93EF93FF938091C00082FDB0
:1006A0001CC02091C6008091B1019091B20140918F
:1006B000B3015091B40101968F73992748175907D8
:1006C00071F0E091B101F091B201EF58FE4F20833B
:1006D0009093B2018093B10102C08091C600FF9156
:1006E000EF919F918F915F914F912F910F900FBE3E
:1006F0000F901F9018951F920F920FB60F92112412
:100700002F933F938F939F93AF93BF93809121013A
:1007100090912201A0912301B091240130912001F8
:1007200023E0230F2D3720F40196A11DB11D05C034
:1007300026E8230F0296A11DB11D2093200180936E
:10074000210190932201A0932301B0932401809171
:10075000250190912601A0912701B09128010196D1
:10076000A11DB11D8093250190932601A09327011F
:10077000B0932801BF91AF919F918F913F912F919D
:100780000F900FBE0F901F901895E5EBF1E01382CC
:10079000128288EE93E0A0E0B0E084839583A68384
:1007A000B7838AE091E09183808381E791E0958728
:1007B00084878DE291E09787868785EC90E0918B26
:1007C000808B84EC90E0938B828B80EC90E0958B17
:1007D000848B81EC90E0978B868B82EC90E0918FFC
:1007E000808F86EC90E0938F828F84E0848F83E00B
:1007F000858F87E0868F85E0878F81E080A30895CD
:10080000789484B5826084BD84B5816084BD85B5EB
:10081000826085BD85B5816085BD80916E008160F7
:1008200080936E001092810080918100826080939D
:10083000810080918100816080938100809180009F
:100840008160809380008091B10084608093B100CA
:100850008091B00081608093B00080917A008460C4
:1008600080937A0080917A00826080937A008091F0
:100870007A00816080937A0080917A00806880930A
:100880007A001092C1000E94EE02E091C901F0913D
:10089000CA0181E090E09C010090D50102C0220FC6
:1008A000331F0A94E2F72083E091C501F091C6015D
:1008B0001082E091C701F091C8012FEC20831092C3
:1008C000D601E091CB01F091CC0140819C010090D8
:1008D000D10102C0220F331F0A94E2F7242B208398
:1008E000E091CB01F091CC0140819C010090D201BC
:1008F00002C0220F331F0A94E2F7242B2083E091D9
:10090000CB01F091CC0140819C010090D30102C049
:10091000220F331F0A94E2F7242B2083E091CB01AE
:10092000F091CC0120810090D40102C0880F991F62
:100930000A94E2F780958223808349E050E066E1E3
:1009400071E085EB91E00E94880061E083E00E9405
:100950009A0161E085E00E949A0161E089E00E94CD
:100960009A0161E088E00E949A0161E087E00E94BC
:100970009A0161E086E00E949A0144E853E06FE04A
:1009800070E081E00E94BF020E9480020E94EE029D
:1009900061E08DE00E949A0100E117E280912B0155
:1009A00090912C01019690932C0180932B01B8011A
:1009B0000E947505892B91F4C0910401D091050125
:1009C0006C2F8DE00E944D0181E090E0CD2B11F065
:1009D00080E090E0909305018093040185EB91E025
:1009E0000E943901181619060CF079C085EB91E0C8
:1009F0000E94FD00EC0190932A0180932901843626
:100A0000910509F45AC08CF48D35910561F1813658
:100A1000910509F448C08B35910509F05BC08091C0
:100A20000201909103010A9723C08737910579F15C
:100A300074F48337910509F04DC040910001509145
:100A40000101609102017091030180E029C08B37A0
:100A5000910599F08D379105E9F58091000190910C
:100A60000101C2960FC080910201909103010A9684
:100A700090930301809302012DC080910001909119
:100A80000101C297909301018093000123C040911E
:100A9000000150910101609102017091030181E018
:100AA0000E94BF0215C04091000150910101609168
:100AB00002017091030180E009C040910001509152
:100AC0000101609102017091030181E00E94900296
:100AD0000E9480026C2F85EB91E00E94B0000E9482
:100AE00049015CCFF8940C94A30597FB072E16F4EC
:100AF000009407D077FD09D00E94890507FC05D036
:100B00003EF4909581959F4F0895709561957F4F24
:100B10000895AA1BBB1B51E107C0AA1FBB1FA61744
:100B2000B70710F0A61BB70B881F991F5A95A9F796
:100B300080959095BC01CD010895EE0FFF1F0590A3
:0A0B4000F491E02D0994F894FFCF22
:100B4A00F4016400010000000000B00088003901CF
:100B5A00FD001D01F20053544556452D302E31003B
:00000001FF
