:100000000C9467000C948F000C948F000C948F005C
:100010000C948F000C948F000C948F000C948F0024
:100020000C948F000C948F000C948F000C948F0014
:100030000C948F000C948F000C948F000C948F0004
:100040000C9447040C9491040C940D040C94D2036A
:100050000C948F000C948F000C948F000C948F00E4
:100060000C948F000C948F004C3239384E4D6F74C5
:100070006F723A2073706565643D000000000024D3
:100080000027002A0000000000250028002B0004A3
:10009000040404040404040202020202020303032F
:1000A0000303030102040810204080010204081029
:1000B00020010204081020000000070002010000D7
:1000C000030406000000000000000000EA04112400
:1000D0001FBECFEFD8E0DEBFCDBF11E0A0E0B1E0A2
:1000E000ECEDFDE002C005900D92A035B107D9F707
:1000F00022E0A0E5B1E001C01D92AF35B207E1F703
:1001000010E0C7E6D0E004C02197FE010E94E60699
:10011000C636D107C9F70E9488050C94C1060C9415
:1001200000000F931F93CF93DF93FC01A685B78543
:100130008D01005C1F4FE8018881998101968F73C2
:100140009927AD014E5B5F4FEA012881398128175D
:100150003907D1F3E80128813981A20FB31F6C93CD
:10016000A685B785A05CBF4F11969C938E93A689F8
:10017000B7892C9181E090E0078C02C0880F991F0D
:100180000A94E2F7822B8C9381E081A30488F5899D
:10019000E02D80818064808381E090E0DF91CF91C9
:1001A0001F910F910895CF93DF936DE08DEF91E054
:1001B0000E949100EC016AE08DEF91E00E949100B5
:1001C0008C0F9D1FDF91CF910895FC0181A18823A1
:1001D00029F0A489B5898C9186FFFBCF11A20895DF
:1001E000FC01A485B585FD01E05CFF4F20813181D4
:1001F0003296808191812817390779F08081918129
:10020000A80FB91F8C91208131812F5F3F4F2F7331
:1002100033273183208390E008958FEF9FEF089577
:10022000DC011C96ED91FC911D97DF01A05CBF4F96
:100230002D913C91119712968D919C9111972817B1
:10024000390739F08D919C91E80FF91F808190E07A
:1002500008958FEF9FEF0895FC0124853585F901FE
:10026000E05CFF4F80819181329620813181821B39
:10027000930B8F73992708958DEF91E00C942C01C7
:100280000895CF92DF92EF92FF920F931F93CF9337
:10029000DF936C01EB017B01E40EF51E00E010E042
:1002A000CE15DF0561F06991D601ED91FC910190C9
:1002B000F081E02DC6010995080F191FF1CFC80183
:1002C000DF91CF911F910F91FF90EF90DF90CF9032
:1002D000089590E0FC01E954FF4F2491FC01ED5595
:1002E000FF4F3491FC01E157FF4FE491EE2309F4F5
:1002F0003CC0222339F1233091F038F42130A9F0A9
:10030000223001F584B58F7D12C0263091F0273060
:10031000A1F02430B9F4809180008F7D03C08091DA
:1003200080008F77809380000DC084B58F7784BD67
:1003300009C08091B0008F7703C08091B0008F7D9D
:100340008093B000F0E0EE0FFF1FEB57FF4FA59139
:10035000B4919FB7F894611104C08C913095382303
:1003600002C0EC913E2B3C939FBF0895CF93DF9347
:1003700090E0FC01ED55FF4F2491FC01E157FF4F48
:100380008491882361F190E0880F991FFC01E55862
:10039000FF4FC591D491FC01EB57FF4FA591B4914C
:1003A000611109C09FB7F8948881209582238883C2
:1003B000EC912E230BC0623061F49FB7F8948881D2
:1003C000322F309583238883EC912E2B2C939FBF63
:1003D00006C08FB7F894E8812E2B28838FBFDF915A
:1003E000CF9108951F93CF93DF93182FEB0161E016
:1003F0000E94B601209711F460E004C0CF3FD10500
:1004000039F461E0812FDF91CF911F910C94690144
:10041000E12FF0E0E954FF4FE491E330F9F048F4C4
:10042000E130B9F0E230A1F584B5806284BDC8BD89
:1004300034C0E630E9F0E73019F1E43049F5809155
:100440008000806280938000D0938B00C0938A00EC
:1004500024C084B5806884BDC7BD1FC08091800062
:10046000806880938000D0938900C093880015C075
:100470008091B00080688093B000C093B3000DC03D
:100480008091B00080628093B000C093B40005C03A
:10049000C038D1050CF0B5CFAFCFDF91CF911F9110
:1004A0000895CF93DF93EC0161E08C810E94B60147
:1004B00061E08E810E94B60161E08885DF91CF9175
:1004C0000C94B601FC01868D978D08950F931F93B0
:1004D0004FB7F89400916001109161012091620181
:1004E000309163014FBFFC0104871587268737874A
:1004F000758F648F1F910F910895009769F0FC012B
:1005000001900020E9F73197AF01481B590BBC015E
:100510008DEF91E00C94410180E090E008958F927E
:100520009F92AF92BF92EF92FF920F931F93CF9340
:10053000DF93CDB7DEB7A1970FB6F894DEBF0FBE3D
:10054000CDBF162F042F19A2423008F40AE07E0115
:1005500021E2E20EF11C802E912CA12CB12C612FF6
:10056000A50194010E94C406029F1019112481E084
:10057000E81AF1081A3014F4105D01C0195CF70193
:100580001083122F732FCA01232B242B252B39F70D
:10059000C7010E947D02A1960FB6F894DEBF0FBE80
:1005A000CDBFDF91CF911F910F91FF90EF90BF9042
:1005B000AF909F908F900895CF93DF930E947D021C
:1005C000EC010E94D3008C0F9D1FDF91CF91089505
:1005D000CF93DF93682F70E080E090E04AE00E94C4
:1005E0008F02EC010E94D3008C0F9D1FDF91CF91F1
:1005F0000895CF92DF92EF92FF920F931F93CF93C4
:10060000DF93EC018FB7F894C0906001D090610146
:10061000E0906201F09063018FBF4C855D856E852F
:100620007F8588899989AA89BB89840F951FA61F10
:10063000B71F8C159D05AE05BF0568F4E881F981EB
:100640000480F581E02D60E070E0CE010995CC8654
:10065000DD86EE86FF86488D598D6A8D7B8D8C896F
:100660009D89AE89BF89840F951FA61FB71F8C1562
:100670009D05AE05BF0508F08CC0C88ED98EEA8EE8
:10068000FB8E6C8D7D8D2E8D3F8DCB01821B930B50
:1006900097FF0BC04A855B859195819591098417D9
:1006A000950754F0241B350B0CC0009761F04A8568
:1006B0005B85841795071CF47F8F6E8F04C0240F11
:1006C000351F3F8F2E8F0E8D1F8D8B81882371F1EB
:1006D0000115110559F1E8E6F0E064917F018FEF13
:1006E000E81AF80A662331F08DEF91E00E9491003C
:1006F000F701F3CF6801012E000CEE08FF08F7FEAA
:100700000EC06DE28DEF91E00E9491006627772781
:10071000CB016C197D098E099F094AE003C04AE0AC
:10072000C701B6010E948F020E94D3008A818823EC
:1007300019F117FD0AC0B8018C810E94F20161E035
:100740008E810E94690160E00CC066277727601BDC
:10075000710B8C810E94F20160E08E810E94690120
:1007600061E08885DF91CF911F910F91FF90EF900D
:10077000DF90CF900C94690160E070E08C81DF9194
:10078000CF911F910F91FF90EF90DF90CF900C943D
:10079000F201DF91CF911F910F91FF90EF90DF90C9
:1007A000CF9008951F920F920FB60F9211242F939E
:1007B0003F938F939F93EF93FF932091B5013091D7
:1007C000B6018091B7019091B8012817390731F42B
:1007D0008091C1008F7D8093C10014C0E091B7016A
:1007E000F091B801EB58FE4F20818091B7019091B4
:1007F000B80101968F7399279093B8018093B70140
:100800002093C600FF91EF919F918F913F912F917F
:100810000F900FBE0F901F9018951F920F920FB65A
:100820000F9211242F934F935F938F939F93EF9386
:10083000FF938091C00082FD1CC02091C600809172
:10084000F9019091FA014091FB015091FC01019650
:100850008F7399274817590771F0E091F901F091CA
:10086000FA01E754FE4F20839093FA018093F90137
:1008700002C08091C600FF91EF919F918F915F918F
:100880004F912F910F900FBE0F901F9018951F92B0
:100890000F920FB60F9211242F933F938F939F9334
:1008A000AF93BF938091600190916101A09162012B
:1008B000B091630130915F0123E0230F2D3720F4C5
:1008C0000196A11DB11D05C026E8230F0296A11DAA
:1008D000B11D20935F018093600190936101A0930B
:1008E0006201B093630180915B0190915C01A091E2
:1008F0005D01B0915E010196A11DB11D80935B0168
:1009000090935C01A0935D01B0935E01BF91AF91A4
:100910009F918F913F912F910F900FBE0F901F903D
:1009200018951F920F920FB60F9211248F939F93D9
:10093000AF93BF93EF93FF939EB580915A0182309E
:1009400089F028F4882341F0813049F02DC08730A8
:1009500070F1873051F028C09F3031F528C09E30AB
:1009600019F525C0953018F11FC0909359011092C8
:100970005A0180915601980F80915701980F8091EC
:100980005801980F9093550180916C0181110CC012
:1009900088E0E2E5F1E0A4E6B1E001900D928A95ED
:1009A000E1F781E080936C0110925A0108C0E82FB2
:1009B000F0E0EE5AFE4F90838F5F80935A01FF91D3
:1009C000EF91BF91AF919F918F910F900FBE0F90BC
:1009D0001F901895CF92DF92EF92FF92CF93DF9303
:1009E000EDEFF1E01382128248EE53E060E070E038
:1009F000448355836683778384E091E09183808389
:100A000089EB91E09587848785E791E097878687D2
:100A100085EC90E0918B808B84EC90E0938B828BC3
:100A200080EC90E0958B848B81EC90E0978B868BAB
:100A300082EC90E0918F808F86EC90E0938F828F94
:100A400084E0848F83E0858F87E0868F85E0878FC1
:100A500081E080A3EFE3F2E082838383A4E1B1E04D
:100A6000B183A08325E030E0338722871486158682
:100A700016861786408B518B628B738B9FE0C92E35
:100A8000D12CE12CF12CC48AD58AE68AF78A108E03
:100A9000118E128E138E158E148E178E168EC3E045
:100AA000D0E0D583C483C9E0D0E0D783C683C8E053
:100AB000D0E0D187C087EFE1F2E082838383B18306
:100AC000A083338722871486158616861786408B67
:100AD000518B628B738BC48AD58AE68AF78A108E13
:100AE000118E128E138E158E148E178E168E3583E0
:100AF000248386E090E09783868387E090E0918767
:100B00008087DF91CF91FF90EF90DF90CF90089595
:100B1000789484B5826084BD84B5816084BD85B5D8
:100B2000826085BD85B5816085BD80916E008160E4
:100B300080936E001092810080918100826080938A
:100B4000810080918100816080938100809180008C
:100B50008160809380008091B10084608093B100B7
:100B60008091B00081608093B00080917A008460B1
:100B700080937A0080917A00826080937A008091DD
:100B80007A00816080937A0080917A0080688093F7
:100B90007A001092C100E0911102F091120281E0FE
:100BA00090E09C0100901D0202C0220F331F0A94A6
:100BB000E2F72083E0910D02F0910E021082E091A5
:100BC0000F02F091100220E1208310921E02E091AA
:100BD0001302F091140240819C010090190202C09E
:100BE000220F331F0A94E2F7242B2083E091130293
:100BF000F091140240819C0100901A0202C0220F61
:100C0000331F0A94E2F7242B2083E0911302F09122
:100C1000140240819C0100901B0202C0220F331F6E
:100C20000A94E2F7242B2083E0911302F09114023E
:100C3000208100901C0202C0880F991F0A94E2F7DD
:100C40008095822380838CB580648CBD61E08CE0CC
:100C50000E94B60162E08DE00E94B60160E08BE088
:100C60000E94B60162E08AE00E94B6018CB58068FD
:100C70008CBD8CE191E00E94DC028FE392E00E9447
:100C800051028FE192E00E94510280916C01882311
:100C900009F46CC080916C01882359F088E0E4E687
:100CA000F1E0ADE6B1E001900D928A95E1F7109286
:100CB0006C018AE291E00E94DC0280916F010E9447
:100CC000E802809170010E94E802809171010E9407
:100CD000E802809172010E94E802809173010E94F3
:100CE000E802809174010E94E80286E391E00E948C
:100CF000DC0210926C0180916F01813049F018F094
:100D0000823099F033C080E491E00E94DC022EC072
:100D100086E491E00E94DC0260E070E08FE392E004
:100D20000E94660260E070E01DC08BE491E00E94CA
:100D3000DC02809173016091710170E0813019F4DF
:100D400071956195710980917401C0917201D0E033
:100D5000813019F4D195C195D1098FE392E00E94B9
:100D60006602BE018FE192E00E9466028FE392E08C
:100D70000E94F9028FE192E00E94F9020E943C0178
:100D800084CFF8940C94EC06A1E21A2EAA1BBB1B8C
:100D9000FD010DC0AA1FBB1FEE1FFF1FA217B30747
:100DA000E407F50720F0A21BB30BE40BF50B661F5D
:100DB000771F881F991F1A9469F760957095809521
:100DC00090959B01AC01BD01CF010895EE0FFF1F6F
:0C0DD0000590F491E02D0994F894FFCFF9
:100DDC0000000000910041012C01F0001001E50021
:100DEC00000000005102F902660262026D696E6930
:100DFC00627261696E20302E31005354415254207E
:100E0C004652414D4500454E44204652414D450009
:100E1C0068656C6C6F0073746F700072756E000097
:00000001FF
